:020000040000fa
:080000000018040000000000dc
:020000040000fa
:103000000f6124000e7f24000e01880000000000e4
:103010000c000700a00b2800110020001100070081
:10302000000020000000e00002003200000002006a
:10303000000000009a940200010000000040da0045
:103040000000fe004440a900800822000000e000cb
:103050000300320050002000a00188004440a80076
:103060000000060091018800800078000000eb005d
:1030700015003700e280400032a0b4009101ba0090
:10308000e280400032a0b4009102ba00e280400029
:1030900032a0b4000002eb00472bde00f507b200bf
:1030a000602ce10004003a000059eb008301e900c4
:1030b000fdff3e00040037006128e10001003200fe
:1030c0000082eb00040007001101ba000200e000da
:1030d000e8ff3a00000006003159ba008301e90018
:1030e0000c0032002159ba008301e90008003200c7
:1030f0000400e00003003a00e280400032a0b40087
:10310000f5ff370011d9ba008301e900faff3a0050
:103110008100e800e180400032a0b4000000060019
:103120002e79040000000000ac75040000000000cf
:103130007272040000000000f67404000000000039
:10314000686d040000000000cc880400000000004e
:10315000c2820400000000007e6d04000000000038
:103160009e6d040000000000206f040000000000bd
:103170008c6f0400000000003e710400000000009d
:103180000272040000000000ae74040000000000a1
:10319000b474040000000000ba74040000000000d1
:1031a000c074040000000000c674040000000000a9
:1031b000cc74040000000000d27404000000000081
:1031c000d874040000000000de7404000000000059
:1031d000e474040000000000ea7404000000000031
:1031e000f0740400000000005675040000000000a8
:1031f0008875040000000000b475040000000000a1
:103200000e76040000000000267604000000000096
:10321000347604000000000058760400000000002e
:10322000a476040000000000027704000000000003
:103230000a7704000000000012770400000000007c
:103240003477040000000000e47704000000000070
:103250006c78040000000000747804000000000096
:103260007c78040000000000847804000000000066
:103270008c78040000000000947804000000000036
:103280009c78040000000000367904000000000073
:103290005a790400000000000e7c040000000000c9
:1032a000147c0400000000006279040000000000ab
:1032b000b279040000000000747a040000000000ed
:1032c000d87a0400000000001a7c0400000000000e
:1032d000787d040000000000f07d04000000000084
:1032e000f67d040000000000fc7d040000000000ea
:1032f0005c920400000000007893040000000000cd
:103300008c94040000000000047e04000000000013
:103310008e7f0400000000003880040000000000e0
:103320007480040000000000d6810400000000004a
:103330008a82040000000000209a040000000000bf
:10334000289a040000000000309a040000000000e9
:10335000b482040000000000389a0400000000005d
:10336000409a040000000000489a04000000000099
:10337000509a0400000000000e83040000000000ca
:103380000084040000000000088404000000000025
:1033900010840400000000003a84040000000000d3
:1033a0008e8404000000000030960400000000003d
:1033b0005085040000000000668504000000000045
:1033c000ac85040000000000268604000000000018
:1033d0009a860400000000005887040000000000e6
:1033e000fa87040000000000b0880400000000001c
:1033f000b488040000000000e4880400000000001d
:10340000ee89040000000000308a04000000000083
:10341000988a040000000000208b040000000000d7
:10342000228b040000000000a48b040000000000b8
:10343000ca8c0400000000003c8d04000000000065
:10344000009104000000000014910400000000003e
:103450001c91040000000000249104000000000002
:10346000020ab900001bb9000200b8008100420046
:103470008100430000000600800078001106b100c2
:10348000030035009101b10001003c000050a10093
:1034900000000600800078001104b1000300350030
:1034a0009101b10001003c000050a00000000600a6
:1034b0001004b100030035009001b10001003c0090
:1034c00010000500000005001004b10007003500e1
:1034d0009001b100040034007000b1000300350019
:1034e0009001b10001003c00100005000000050043
:1034f0006900e100040035006d00e10003003400c4
:103500000002b100010032000000050010000500bb
:103510000a00fa0080017800e20f500028003e0007
:10352000a02a8200e10f5000080032008023200012
:103530000000e000050032000423200025232000c5
:103540004623200080017800040037000422200078
:1035500025222000462220008322200014409000d3
:103560000004e000040035008009eb0014409000e6
:103570000074a00010429800154090000028a3009d
:1035800003003a00154090000024a00090429800eb
:103590008001eb0007003700154090000008a300f1
:1035a000fdff320063c078000000fb00000b7800d4
:1035b0008301e800828f5100f7ff3a0008003700ce
:1035c00030002000b0bf9f00c3bf9f00d1bf9f004d
:1035d000e2bf9f006a80570000c0da006fb9970011
:1035e000020078000080fa00000006000a00fa00dd
:1035f000881f7800800178000000e00029003a0070
:10360000a02a8200e10f5000080032008023200031
:103610000000e000050032000423200025232000e4
:103620006723200080017800040037000422200076
:1036300025222000672220008322200014409000d1
:103640000004e000040035008009eb001440900005
:103650000074a000104298000002eb000c0037003c
:10366000130a2000154478006140640002003a000b
:103670008301e900fbff3a000402e800954178006d
:1036800061c06100050032001700780080587800a2
:1036900004035100820f5200f1ff3a00060051006e
:1036a0000800370020002000a0bf9f00b3bf9f008c
:1036b000c1bf9f00d2bf9f006c80570000c0da00de
:1036c0005fb897004f0478000080fa000000060001
:1036d0006022b800060220000000d0008180d200e5
:1036e0000482d2008582d2000000a00002025200b3
:1036f00083825a00030031000202420083824a00a2
:103700000000a1000603e900f3ff3a0000000600f4
:10371000140020003e04370003f0a200889fbe0082
:103720008a9fbe008c1f7800540407005b0433009e
:103730006450e1004f0032006420e100520032008a
:1037400003826c0007003b000905d0000306d0008f
:10375000820f54000c065d000200390002003200a6
:1037600089017800030678008582550004003d0039
:103770000003fd008103fd008502ea008b85420005
:10378000840f720002003b0060001000e08018000f
:103790006011b8000005eb007a28e1000a0039004a
:1037a00006007800c75ddd00f707b200878075006e
:1037b0002d003700828171000a01780061056000e8
:1037c0008180d1000080d3008502e900f9ff3b0031
:1037d000060440008784480002003b006004140097
:1037e000e0841c000988a300070032008a81710070
:1037f00082817100610164008904d1000884d300d2
:103800008b05e800170037000978a30013003a0081
:103810000b00e000130034008b05e90008044400ad
:1038200089844c000a4474000978a3000d003a0012
:103830000b00e000070034008b05e9000804440099
:1038400089844c0001003a000b0020000978a30095
:10385000f7ff32000001eb000200370082817100a7
:103860000a0178001d0407000cf0a70001f0a00079
:10387000130437006420e10002003a00838f6c00db
:10388000130433000801be000200be000c04370020
:1038900081037800370407000001be006000b80013
:1038a0000478a30013003a006220e10015003e00f6
:1038b0000d0039008301d1000281d3008180d30043
:1038c0008301d1000281d3008180d3008301d10024
:1038d0000281d3008180d3000538b000c42add0006
:1038e000f300b2008381720007f0a70003f0a0008c
:1038f00000000600f3ff2700f2ff2f006110b9005f
:10390000fbff370003ff2700f7ff37004f89de007a
:10391000820178002c0437002800fa00889fbe003e
:103920008a9fbe008c9fbe0003866b005d0407006b
:103930006400e100440032006408e1004a00320003
:103940006100e100460032006108e10049003200f8
:10395000ec0647006000b8003d02be003d03be001b
:10396000f48657006011b8003d04be003d05be005e
:103970007d0320000b0037000000a0008d06e90049
:10398000130032000402420085824a0006034b0005
:1039900087834b00000040008180480002014900fd
:1039a000838149000802520089825a000a035b00a1
:1039b0008b835b00f0ff3b000802420089824a00d3
:1039c0000a034b008b834b008d06e900edff3a00a4
:1039d0008482720086827200f707b20087827200ca
:1039e00001003200150020001e0490003e0b9000e4
:1039f00006035400e63fb0000368a300070032004e
:103a00000000a7000500a0008301d1000281d300bf
:103a10008180d3000080d3000603e8008301d10039
:103a20000281d3008180d3000080d3000002eb002c
:103a30000482d2003404070003f0a1000cf0a700b8
:103a400003f0a0002b043700640247006408e10083
:103a5000250432003400be003401be00f6ff3700fa
:103a60006108e100200432006011b8006000b80075
:103a7000f1ff370003ff270002002000fbff3700a3
:103a800013ff07000400be0000000600889fbe0070
:103a90008a9fbe008c1f7800780307007f033300e5
:103aa00003866c006450e100240032006420e100d1
:103ab000270032006150e100220032006120e10065
:103ac000210032008b854200eb07b1000134b800c1
:103ad000003ab8000804420089844a00013ab8005c
:103ae0000030b8008880400009014a00040033001b
:103af0000000400081804800020149008b05e90078
:103b0000c909dd00830170000100320013002000ac
:103b1000c814de004814dd004709de001200b200c0
:103b2000c808de00088470006c03070001f0a100e3
:103b30000cf0a70001f0a000610337006120e10054
:103b4000630332000801be000200be00f7ff370029
:103b50006150e100fcff3a005d0337000001be0048
:103b6000840307000470a70003f0a10003f8a3007a
:103b700013003a006509b100100032000900350059
:103b80006928e1000200350001002800000005005e
:103b900000004000818048008502e900fcff3a00f7
:103ba00000000600f88f4200050035008100d100ba
:103bb0000080d3008502e800fcff3a000000060008
:103bc0008000eb0000000500f4ff2f001003370019
:103bd000889fbe008a9fbe00010578000100e000ba
:103be0000400350008003c000000e0002000320026
:103bf0000500370060001000e080180002003b0064
:103c000001f02c001a0037000004be006011b8005b
:103c10006b0920000982cf00020039000882cf0022
:103c20000441b000694252000e00320008003b001f
:103c300082817100610164008904d1000884d3008d
:103c40008b05e8000442e800f9ff3a000500370060
:103c50000804440089844c008b05e9000442e90013
:103c6000fbff3a001d0307000af0a70001f0a000c7
:103c70004f05be004f04be0000000600889fbe0036
:103c80008a9fbe008c1f7800fc02070003033300ec
:103c900003866c006450e1002e0032006420e100d5
:103ca000330032006150e1002f0032006120e1005a
:103cb0003100320085855500eb07b0000900200077
:103cc00008042000050037000804440089844c00e3
:103cd0000a0031000603430087834b0000015300b4
:103ce00081815b00f8ff33000203be000800a000e2
:103cf0000804440089844c00f6ff3900c639dd0011
:103d00008301730001003200130020008904d100f8
:103d10000884d3000998a300050032000800a7001a
:103d20000300a0008904d1000884d3008b05e800bb
:103d30008904d1000884d3000001eb000281d20085
:103d4000e602070001f0a1000cf0a70001f0a000be
:103d5000db0237006420e100dd0232000801be0012
:103d60000200be00f7ff37006120e100d8023200f8
:103d70006000b800f3ff37000000200001f82700c2
:103d8000f0ff37001e00fa00889fbe008a9fbe0029
:103d90008c9fbe000404be000605be00009fbe004e
:103da0000297be0084030700040678000800be00e6
:103db0000a01be008003070084067800040020008a
:103dc0008f03070005003a008d02b30014002000a5
:103dd0008b03070001003a00f8866e000802be005f
:103de0000a03be00f90007003e00be002e01be001f
:103df000400332000bf0a7000de0a00003f0a70085
:103e00000df0a0000d08a300d6003a003e02be004f
:103e10002e03be0007f0a10037079800eb00070053
:103e20000df0a600cf00320001003c000dd0a00034
:103e30008d4f76002c0333006000b8006011b8008d
:103e40006260e100c9003900d1003e000d28a300e6
:103e5000d2003a000df8a300080032000d58a3006c
:103e6000d80032003e02be002e03be00d70007007d
:103e70003e00be002e01be00c00032003e00be006b
:103e80002e01be006a024700a1030700009fbe008a
:103e90000297be000df0a7000d30a6000df0a100a6
:103ea0006d07980067fe2300e6092a00f5672600e3
:103eb000d4bc23005102070009003d003e00be00b3
:103ec0002e01be0014002000ae0307005e02900029
:103ed000009fbe000297be000402e900540798004c
:103ee0005e0090006100b90088fe0700700798002e
:103ef000010f9800120f9800230f98000802be00cf
:103f00000a03be00bd000700fc0107000006be005a
:103f10000100e00002003d0060001000e080180099
:103f2000f2ff2700820f5000e08f580083003e0010
:103f30000c00be0075fe0700300f9800410f98007e
:103f4000520f9800630f98000800be000a01be00df
:103f5000ea01070040079800f23f2000820f50005e
:103f6000e08f580005003c0012c02f00f3ff2f0027
:103f7000820f5000838f58000a003d005e069000bb
:103f80000c00e0000300320001003c000201ea00e6
:103f9000020678006000b8006011b8004007980081
:103fa000270037000800be000a01be00411add00ec
:103fb0004522de00f43fb1008400b1001003070089
:103fc000809fbe00829fbe007e0290008e0a9000fd
:103fd0001e0b9000ae0b9000880007003e0a900078
:103fe000ce0a90005e0b9000ee0b90009803070045
:103ff0004f03be004f02be00809fbe00829fbe00e6
:104000000800be000a01be00910307007e02900076
:104010008e0a90001e0b9000ae0b900077000700f8
:104020004f03be004f02be003701070067fe2300aa
:1040300026e42200a5ef2f00f49e23006f00070066
:10404000809fbe00829fbe004e0090006100b900bc
:104050002efe070003f0a2000802be000a03be0005
:1040600029010700809fbe00829fbe003e00be0067
:104070002e01be00780307004f03be004f02be00b2
:104080005e0007004f03be004f02be001e01070086
:1040900009040700809fbe00829fbe004d000700fc
:1040a000ce0690000df0a7008d06ea00090037004b
:1040b0003e00be002e01be003e02be002e03be002a
:1040c0004e000700009fbe000297be000800be0021
:1040d0000a01be003e02be002e03be000d00a70076
:1040e000460007000004be000205be008d06d10098
:1040f000efff3a006e02900004e0a60006003700d1
:104100000002be000203be003200070002fe0700ec
:104110000004be000205be004f03be004f02be00f9
:10412000360007000c02780016030700ee06900028
:104130000df0a70003f0a2006e023700ee0690001b
:1041400029000700260007000dd0a7000dc0a00021
:104150000de0a7000dc0a2000dc0a60003002000c6
:10416000f2ff37001b000700620237000bf8a300c4
:10417000020032001e000700190007000df8a3001e
:104180005c0232000d30a70003f0a2005902370094
:104190000bf8a300f9ff3a00f7ff37003e02be001c
:1041a0002e03be0009000700eeff320001003c00b4
:1041b0000bf0a2000a0007000bf0a600030020008d
:1041c0004c0237000a0007004702370001000700d1
:1041d0008a01370003ff23006000b80002000500d9
:1041e00003ff2700fcff37002002200001003700fa
:1041f0001002200000408800000006002800fa009d
:10420000889fbe008a9fbe008c9fbe0003866b0005
:10421000240207000028a30064003a000128a3003c
:1042200067003a000008a30062003a000108a300fa
:1042300065003a001e009000be0890008106400014
:10424000ed3fb100f4805700ee019000111ab80064
:104250008e099000311bb8009e099000311cb800f7
:10426000511db800f485570046000700fe0190007c
:104270003a0007008b85e8003e0007008e09900099
:1042800040000700ee019000340007008b85e80035
:10429000380007008e099000400007009e0990003a
:1042a0001b18b800890440000a854800fe019000f0
:1042b000340007008b85e80038000700ee0190000d
:1042c000300007008e0990001b18b80089044000d8
:1042d0000a8548000a98a30008003a000402420038
:1042e00085824a0006034b0087834b0008044c007c
:1042f00089844c000a054d008d06e9008482720015
:10430000850273004c3add00850272000100320024
:1043100015002000443ade001400b2004538de00eb
:10432000cb45dd000b007000c540de00cb4ddd004d
:104330008b8070004549de00cb55dd000b0171001c
:10434000c551de000d037800ef01070003f0a10066
:104350000cf0a70003f0a000e60137001b18b8001e
:104360008502400006834800e0834b0060044c0057
:10437000070037001b18b800060340008783480079
:10438000faff37001b18b800870340000884480074
:10439000e0844c0060054d00000006001b18b800ca
:1043a0000804400089844800faff37000108a30090
:1043b000cd013a005800be005801be00e3ff3700af
:1043c0000008a300c8013a0009047800f9ff37008b
:1043d0001400fa00889fbe008a9fbe008c9fbe001a
:1043e0000005be000206be00680047000c90be003b
:1043f0000a90be00c80307006400e1001a00320002
:1044000016003e006100e1001a0032006e049000c8
:10441000fe0490000e0b90009e0b90006011b800ff
:104420009e0590000b38b100d501200082817100fb
:10443000610164008703d1000683d3008984d3001f
:104440000884d3008502e900f8ff3a002301070041
:104450000df0a70001f0a000a6013700f1ff270032
:10446000f0ff2f00a301370001f827000000200013
:10447000f7ff37006000b800f5ff37000001be000d
:104480003c0107000470a70003f0a1006509b1001a
:10449000160032000d0035006828e10006003500e6
:1044a000f0ff2f00f1ff27000300e00013003b00a6
:1044b0000100280000000500000040008180480045
:1044c0008502e900fcff3a0008003700f88f42003f
:1044d00002003c008000eb00000005008100d100dc
:1044e0000080d3008502e800fcff3a000300e000f2
:1044f00002003b0060001000e08018000000060091
:1045000004002000c20037002800fa00889fbe0087
:104510008a9fbe008c9fbe000706780087866900d0
:104520000c003b00030478008704780008f0a10029
:1045300009f0a100840f5000858f5800860f5900a4
:10454000890f5c00030033000cf0a20001003a0068
:104550000cf0a100530107006400e1005f0032008d
:10456000780147006408e100610032006c014700f7
:10457000748557003200be001201be003a04be002e
:104580001a05be001e039000be0a9000850353006a
:1045900006003d000004fd008104fd000205fd0051
:1045a0008305fd008703ea00050378000df8a300ea
:1045b0000400320060041400e0841c0060051d004b
:1045c000e0851d006022b8007d0320000d38e10069
:1045d0008006eb000b0039004433dd00f300b2002d
:1045e0008301730039003700848272000d02780065
:1045f000e10664008b85d1000a85d3008984d3004d
:104600000884d3008703e900f7ff3b00080040005f
:10461000898048000a0149008b81490004003b0061
:1046200060001000e080180060011900e0811900ae
:104630000358a300090032008d8272008482720048
:10464000610260008301d1000281d3008180d30028
:104650000080d3000603e8001b0037000348a300d6
:1046600017003a000600e000170034000603e900d6
:104670000d00a300000048008180480002014900ad
:10468000838149000348a3000f003a000600e000c0
:10469000090034000603e900000040008180480062
:1046a000020149008381490001003a000003eb0048
:1046b0000348a300f5ff32006022b8000200370073
:1046c00084827200618266000f01070003f0a1007e
:1046d0000cf0a70003f0a0000601370064014700ba
:1046e0006408e10002003a000df8a300fe003a0061
:1046f0003200be001201be00fe0037001400fa00b6
:10470000889fbe008a9fbe008c9fbe000004be0032
:104710000205be00680047000a90be000890be0077
:10472000fd0207000070a7000bf0a100304320003d
:104730009e02900080825200b0fe2f000028e1000f
:1047400011003d00b0fc2f000028e10015003400ee
:104750001e0990008e0890007e0090000501b000b8
:104760000201d1008180d3000080d3008502e800df
:10477000fbff3a000b00e000de003b006000100091
:10478000e0801800db003700f0ff2f00f1ff27006a
:104790000b00e000d7003b000100280000002000d3
:1047a000d40037006000b800d2003700839f680053
:1047b0000100e00002003d0060001000e0801800f1
:1047c0000300e00002003d0060011100e0811900db
:1047d000bffb07004f00e00002003b00600010003c
:1047e000e080180000000600809feb00f102070047
:1047f0008f87e9000000e000000006008f1fd10055
:10480000ec0207008f87e9000000e00000000600ce
:10481000889fbe008a9fbe00841f78001700070093
:104820004f00780011003300f0ff2f00838f6c00e1
:1048300006003b00040565000a00a70008003700d9
:1048400009f0a6001000200008003700820f540075
:10485000838f5c00030039001000200001003e003f
:104860000000200009f0a7000000ea004f05be008c
:104870004f04be000000e000000006000004be007f
:104880003c0007000003be000405be000200be009d
:1048900038000700844f7500000006000200be00cb
:1048a0006450e100050036006420e100020036009b
:1048b0000968a30001003a000800be000160a000e2
:1048c0004f0678004f05be004f04be0000000600f2
:1048d000f0ff2f00f1ff2700f9ff370081002000d3
:1048e000618055000b003d000b00200061fe2f0091
:1048f0000100e1001d00340082817100610164004b
:104900008904d1000884d3000000e800faff3a00cf
:10491000710020006100640003007000020060006c
:104920000900320061044400e0844c000988a500bd
:10493000050032008b05e8006808e10002003a003b
:104940008904d1000884d300f20f20000258e1004e
:1049500005003d00c75ddd00f907b20089807500e4
:1049600008007800000006000bf827008b00780094
:1049700000000500c70ade00f107b200f50fb20023
:1049800008003200e1cf4200020032000170a000b6
:1049900024000500810f70000100320004080500aa
:1049a00044000500810f700002003a001400050069
:1049b0008502e9000000400081c04800fcff3b0088
:1049c0000170a00024000500889fbe0083047800c9
:1049d0000300e0002c00350003003c000082700062
:1049e000040271002600320036432000c50020007a
:1049f0008383cf000a0039000541b1008283cf00d4
:104a0000070039000541b1008183cf00040039005f
:104a10000541b1008083cf00010039000541b1009c
:104a200085c353006022b800120032000a003b0028
:104a300084827200610260008301d1000281d30090
:104a40008180d3000080d3000603e8008743e8009c
:104a5000f7ff3a000700370000004000818048005f
:104a600002014900838149000603e9008743e90008
:104a7000f9ff3a002400070009f0a70003f0a000a6
:104a80004f04be000000060060001000e080180027
:104a900060011900e0811900d3ff3b00033e2c00a8
:104aa000f7ff3700680447000294be000094be0080
:104ab000fc0447008694be008494be000900780080
:104ac000150207000800780013020700990078001b
:104ad000814f70000b003b000800be005e02070023
:104ae0004f00b10003003700f3ff2700f2ff2f0053
:104af0006110b9004f06be004f05be004f04be0056
:104b00000080fa0000000600180020005700200076
:104b1000080453000d003d000600200097fc2f0004
:104b20000740e1001e0034008482720061026000d0
:104b30008301d1000281d3008180d3000080d300a3
:104b40000804e800f8ff3a00470020006104600014
:104b500005047400040464000d003200610040008c
:104b6000e080480060014900e081490003b8a500e9
:104b7000070032000603e8006538e10004003a004f
:104b80008301d1000281d3008180d3000080d30053
:104b9000f87f20000830e1000300350008037800aa
:104ba0006000b8006011b8004433dd00f300b200cb
:104bb000830173000000060005ff270005826100e5
:104bc000070032000428e100010032002400050043
:104bd0000600070001003a00440005000408050033
:104be00002000700f9ff3a00140005006f8261001f
:104bf00081027000850271008502720000000600cb
:104c00001400fa00889fbe008a9fbe008c9fbe00e1
:104c100004067800e80247008292be008092be003f
:104c200005007800bc0107006200e10033003a0093
:104c30006000b8006011b8001e0390000c03530020
:104c4000f63fb100220035004b0320000b30e1009d
:104c50002a003d00fb012000faff2f006154b9003b
:104c60006c0147008b05d1000a85d3008984d300ed
:104c70000884d3000603e900faff3b003200be00bf
:104c80001201be000002640081826400020365001c
:104c9000838365000502720006027200070272003b
:104ca000160032000884ea008984ea000a85ea00d6
:104cb0008b85ea00000064008180640002016500c9
:104cc000838165006022b8001e0390008eff0700fc
:104cd000de03900007f0a70003f0a0000082eb00c5
:104ce0000400e0008e0290004f06be004f05be009b
:104cf0004f04be000080fa00000006006401470077
:104d0000040020003200be001201be00f4ff370094
:104d10001400fa00889fbe008a9fbe008c9fbe00d0
:104d2000040678000004be000205be0068004700cb
:104d30000a90be000890be00770107006200e10003
:104d40000800be000a01be00040020000b003a006b
:104d50001e029000e43fb1006e009000fe00900043
:104d60000e0990009e099000f300b20005fe23009a
:104d7000858171000bf0a70003f0a000040e7800fd
:104d80005cff37001400fa00889fbe008a9fbe00b7
:104d90008c9fbe00040678000004be000205be0021
:104da000680047000a90be000890be005a01070044
:104db0006200e1000800be000a01be0023003a00c4
:104dc0006e009000fe0090000e0990009e09900079
:104dd0009e02900085024600e47f20000428e10046
:104de00005003c00d4fc2f000428e10008003d0031
:104df0000500200001003700f57f20002002200080
:104e0000004088006000b8006011b8000a00370058
:104e1000140020000482520007003d008301d100ed
:104e20000281d3008180d3000080d3000402e80017
:104e3000faff3a0005002000c42add00f300b200aa
:104e4000858171000bf0a70003f0a00029ff370057
:104e500007f0a200acfd37000800fa00889fbe00f2
:104e60008a9fbe008c9fbe0053ff07006420e100b4
:104e700020ff3e006220e100030032008700350081
:104e800003f8a3001bff320003f8a30087003a00d9
:104e90000e0278009eff07001e0678000004be0088
:104ea0000205be007a000700e9ff0700009fbe0070
:104eb0000297be000800be000a01be0067fe230084
:104ec000e6092a00f5672600d4bc230046fe070049
:104ed000090034003e00be002e01be006c00070039
:104ee000dbff0700009fbe000297be000800be0067
:104ef0000a01be00030037000c06e9003e00be00b8
:104f00002e01be0062000700bcfc07006000070025
:104f10007dfd07000002be000203be003e00be0091
:104f20002e01be007cfa07000004be000205be0090
:104f30000002be000203be00b0fc0700009fbe00de
:104f40000297be0017042c0006582d0075b62400e9
:104f5000f4e02c006cfd07003e02be002e03be00f4
:104f6000a6fc0700370724003608280055a12f00ab
:104f7000e467220064fd07003e02be002e03be006f
:104f80009efc070087082c00e6bf2000d5c0290042
:104f9000740729005cfd0700809fbe00829fbe0051
:104fa00097fe2b005641240065352b0094d22b0030
:104fb0003e00be002e01be0090fc07000703240047
:104fc000a624260065012200d4fe2a004efd07001b
:104fd0003e02be002e03be0088fc070007052c0021
:104fe000f67f2000352b2100a4592b0046fd070039
:104ff0003e02be002e03be0080fc07004f03be0031
:105000004f02be0044fa0700009fbe000297be0098
:105010000802be000a03be0078fc07000802be00ba
:105020000a03be0038fd07000004be000205be00f2
:105030006160b90035fa0700009fbe000297be000c
:10504000b7f22b0006012d0015c6250084ca2000ea
:105050006afc07000802be000a03be002afd070022
:105060000004be000205be003e00be002e01be00d0
:1050700067fe2300060023006022b8005ffc0700e3
:105080000802be000a03be001ffd070099fe37009c
:1050900007fe23006022b8000600050003ff2f0072
:1050a000020020006000b80092fe370010022000cd
:1050b000004088008cfe37000800fa00889fbe0080
:1050c0008a9fbe008c9fbe000004be000205be0089
:1050d000b9fe07006420e10086fe3e008a0032002f
:1050e0006708240026e42200a5ef2f00f49e230089
:1050f000bdfd07007a003c000800be000a01be00aa
:1051000077082c0056382400d5462400341c27008c
:10511000bafd0700780035000800be000a01be0095
:1051200003f0a10007c923000600200005002000ad
:1051300004002000b1fd0700710035000800be002a
:105140000a01be0077ff230076542100b5522600e5
:10515000e42f280029fc070007fe2300060020009a
:105160006022b80003f0a70007f0a000e6fc0700eb
:1051700062fd07000006be00e4f9070003f0a2008c
:10518000009fbe000297be0067fe230006002300ba
:105190006022b80019fc07000802be000a03be0026
:1051a000d9fc0700809fbe00829fbe003e00be006b
:1051b0002e01be00b7f22b0006012d0015c62500fa
:1051c00084ca20000dfc07004f03be004f02be0042
:1051d000cdfc0700809fbe00829fbe000002be0083
:1051e0000203be0005fc0700009fbe000297be0040
:1051f00017ef2300462a250085f52600c4c12d009f
:10520000fefb0700c7f72300460e270035fb2600ec
:10521000046e2f00bcfc07003e02be002e03be0041
:10522000f6fb070007fd2300060020000500200014
:1052300004002000b4fc07004f03be004f02be0074
:10524000eefb0700809fbe00829fbe003e00be00b6
:105250002e01be0007f4230096f92300e5fd260089
:1052600094802300e5fb0700c7fa2300e618270017
:1052700025142700341b2500a3fc07003e02be00b6
:105280002e03be00ddfb070007fe23000600200002
:1052900005002000040020009bfc0700ffbb9700d6
:1052a0006fbb9700dfba97004fba9700e8fe070080
:1052b0000002be000203be004f01be004f00be0050
:1052c00095f9070007fe2300060020006022b800c1
:1052d0008dfc070061024600aafe070005fe3700ac
:1052e00003ff270022022000024088000001eb009b
:1052f0006000b800fffd37008001eb00f9ff3700c8
:1053000003ff2300f9ff370003f8a300f9fd320083
:105310008001eb00f5ff3700800078005002be00ee
:105320005003be004439de00f700b200f37f2000d6
:1053300003016100090032000218e10016003a0082
:1053400085017200830173008381730000082000cf
:1053500015003a004000200013003700850172005c
:10536000830173008381730005003a0004a8be0026
:1053700006a8be00100020000b0037000201e90063
:105380000402420085824a0006034b0087834b00db
:105390000748a300f9ff32000740a00004a8be00a0
:1053a00006a8be002000200080009800920098000f
:1053b00000000600889fbe008a9fbe008c9fbe0032
:1053c0000404be000605be00809fbe00829fbe0092
:1053d000f9fd0700040678000800be000a01be00bf
:1053e000f5fd0700840678004f03be004f02be00a3
:1053f0008d4f76007fb0970013003300f0ff2f0031
:105400008b8f6b0006003b000d0666000c00a700aa
:105410000a00370007f0a600100020000a0037003d
:10542000880f5200898f5a008a0f5b008b8f5b00b8
:10543000030039001000200001003e0000002000a1
:1054400007f0a7000000ea004f06be004f05be00af
:105450004f04be0000000600e48240001078a30064
:1054600007003200640240001178a3003400be003f
:105470001401be00040032000330a7000000060043
:105480003500be001501be000330a000000006007c
:10549000881f7800000478005001be004000be0064
:1054a00004004000858048000601490087814900ca
:1054b000009cbe000294be000400e1000588e100eb
:1054c0000690e1000798e100020031006800440006
:1054d0001008e8004f04780000000600f487470039
:1054e000889fbe008a9fbe008c9fbe008e1f7800e2
:1054f0000205be000004be00d4b79f00e5b79f00c0
:10550000f6b79f0087bf9f000000eb00c0b79f0069
:10551000b0b79f00a0b79f0090b79f0080b79f00d3
:105520000d042000bfb097004fb09700000140006d
:105530000000e0000f003d004f08de000000710099
:10554000c0b79f009e00070001003d001200200030
:10555000a100070001003d0012002000a600070086
:10556000b1000700b60007000f004000c8ff0700a9
:10557000220037004f08de0000067100ccb79f0004
:105580008f00070001003d0012002000920007007c
:1055900001003d001200200097000700a200070054
:1055a0000fb297009fb297002fb39700bfb3970039
:1055b000a90007000000520081805a0002015b0030
:1055c00083815b0080b79f0091b79f00a2b79f00c7
:1055d000b3b79f000007eb009f0007000020e10029
:1055e00001a8e10002b0e10003b8e10001003100d0
:1055f0001e0020000e005600c0b79f004fb297005b
:105600000400e00007003500100020000100200029
:105610006011b80008047000898470000a057100e8
:105620008b8571008d06e900beff3a000400e000a2
:1056300003003d00820007000f00400094ff0700b8
:105640004fa897000000e00004003a000fb4970054
:105650009fb497002fb59700bfb59700940007003f
:105660004f0778004f06be004f05be004f04be0036
:105670004f01b10000000600881f780018002000cc
:10568000881f780095ff07008f87e9004f04780096
:1056900000000600801feb0090ff07008f87e900e5
:1056a00000000600889fbe008a9fbe008c1f780005
:1056b0006e00070007003d0073000700e00f5b006d
:1056c000e08f5b0007003d00320007000006eb00a2
:1056d000040037003400070002003d002a000700e4
:1056e0001c00200072000700e3ff07000203be0059
:1056f0000002be000c00e0000100320022000700a2
:105700000400be000601be004f0678004f05be0033
:105710004f04be0000000600889fbe008a9fbe00a6
:105720008c1f78005100070005003d00560007005f
:10573000e00f5b00e08f5b0006003d0004003700d7
:105740001900070003003d006000b8006011b800b8
:105750001000070056000700ceff07000203be003e
:105760000002be000c00e00001003200060007004d
:105770000400be000601be004f0678004f05be00c3
:105780004f04be00000006006000b8006011b800c1
:1057900000003700040250008582580006035900bb
:1057a00087835900000006000006eb00e00f52005e
:1057b000e08f5a00e00f5b00e08f5b000000060006
:1057c0000180400090b79f000001eb008fb0970070
:1057d0000100e000000006000200700090b79f008a
:1057e0000180400080b79f000001eb00ffa89700f8
:1057f0000100e000000006000200700080b79f007a
:10580000018040006faa9700cf20de0001007000e9
:10581000f0af9f0004024200250007004f18de0091
:105820000002720000000600e4af9f00080444007c
:1058300089844c000a054d008b854d000000060050
:105840003fb29700cfb297005fb39700efb39700d6
:1058500000fe2f00000006003fb09700cfb0970079
:105860005fb19700efb19700000006000205be008f
:105870000004be00e00f5000e08f5800e00f590018
:10588000e08f5900000006006000b8006011b80009
:1058900008045000898458000a0559008b85590076
:1058a0001c002000e00f5200e08f5a0000000600ac
:1058b0000800be000a01be0000000600801feb00c9
:1058c000bcfe07008f87e9000000e0000000060032
:1058d0001400fa00889fbe008a9fbe008c9fbe0005
:1058e0000004be000205be00680047000a90be002a
:1058f0000890be0088fe07000070a7000bf0a10012
:105900000bf8a30020003a009e0990000e099000b9
:10591000fe0090006e0090009e0290003443200034
:105920008482520073fc32000a003c00b4fc2f0059
:105930000428e100140034008301d1000281d30067
:105940008180d3000080d3008502e800faff3a008e
:1059500068fc3700b40020000428e10007003c0088
:105960000000400081804800020149008381490015
:105970008502e900faff3a005efc370003002800c8
:1059800002002000010037006011b8006000b8007c
:1059900058fc3700280007000509780000000600c1
:1059a0001400fa00889fbe008a9fbe008c9fbe0034
:1059b0000004be000205be00680047000a90be0059
:1059c0000890be0054fe07000070a7000bf0a10075
:1059d0000bf8a30016003a009e029000304320000e
:1059e00080825200b0fe2f000028e1000d003c0034
:1059f000b0fc2f000028e1000d0034001e099000cb
:105a00008e0890007e0090000501b0000201d100d8
:105a10008180d3000080d3008502e800fbff3a00bc
:105a200034fc3700010028000000200031fc370062
:105a30006000b8002ffc37000003be00cdfb07005c
:105a40006220e100020032000600be0005000500f1
:105a5000e507b100f107b20004f023008480700074
:105a600007f0a70001f0a000240005000003780063
:105a700080027800020278008001eb000800370005
:105a80000402e90063c07800805a78008301e800ce
:105a90000004e00002003a008000eb00060037003e
:105aa000828f5100f6ff3a00fbff37000040eb0009
:105ab00080f07a008100e800848f5000fbff3a00fc
:105ac00006007800000006008001eb0002003700ad
:105ad000817178008301e800828f5100fcff3a0059
:105ae00000000600800078003004e000feff3a006d
:105af000010050000000e90000000600800178006d
:105b00000001780031407800005978000004e0007e
:105b1000fcff3a0003007800000006001041780006
:105b2000814f5100040032000000e8000204e00050
:105b3000faff3a000000eb00000006000c00fa003b
:105b4000a0bf9f00c0bf9f00e6ff0700b0bf9f003f
:105b5000f0bf9f00100c2000d0bf9f007481570041
:105b6000efb097006c805700340207000080fa0005
:105b70000000060080017800000178000100370075
:105b80000201e8001204e000fdff3a003140780015
:105b9000005978000004e000fcff3a0003007800a0
:105ba000000006000c00fa00889fbe000004780088
:105bb000cfb09700f0ff2700d0bf9f008004eb001c
:105bc00099bf9f0088bf9f00a8bf9f00200c2000a6
:105bd000b0bf9f0078815700708057008404070091
:105be0000fb89700094878000fb8970008045000d4
:105bf000080078004f04be000080fa000000060094
:105c0000889fbe000004be000d0037000900780028
:105c1000b4ff0700000178000800be000f00070075
:105c20000000e00002003a00080078000900370098
:105c30009900fb000800e800b8ff070000047800a6
:105c40000800e000020032001804e000efff3a0014
:105c50000000eb004f04be00000006008101780048
:105c60000002eb000b003700e44078000104e00084
:105c7000030032000402e80093cf50000400320019
:105c80008180fb001380fb000080500000000600b4
:105c90008301e800820f5200f3ff3a000000050084
:105ca0000c00fa00a0bf9f00c0bf9f008dff07003f
:105cb000b0bf9f00f0bf9f00100c2000d0bf9f001e
:105cc00074815700efb097006c805700620c07009a
:105cd0000080fa000000060010417800b141510038
:105ce00003003a000000e8000204e000faff3a0076
:105cf0000300fb00000006008001eb0002003700fb
:105d000061f079008301e800828f5100fcff3a00c6
:105d10000000060001002000d0298a00e1298a0045
:105d200011c0b30080532400014878000000060031
:105d3000825324001204e00006003a001000200004
:105d400001002000d0298a00e1298a0010c0b30098
:105d500000497800d2e62400631c2400d029820088
:105d6000e1298200bef507000001be009003230078
:105d7000010020000200400083804800d0298a00f2
:105d8000e1298a004088de00cf80de0000f0a1001b
:105d9000000006000400fa00e0bf9f00e481570005
:105da000812978000002eb000f0037006fb89700e0
:105db000904078007fb89700104078000402e80017
:105dc00080cf5000040032008180fb000080fb0087
:105dd00000805000070037006fb897000000e8000f
:105de000e0bf9f009309e800820f5200efff3a00e6
:105df0000000eb000080fa00000006000c00fa0032
:105e0000889fbe0000047800cfb09700f0ff270005
:105e1000d0bf9f008004eb0099bf9f0088bf9f0008
:105e2000a8bf9f00200c2000b0bf9f0078815700c2
:105e3000708057006b1007000fb897000948780072
:105e40000fb8970008045000080078004f04be0007
:105e50000080fa0000000600889fbe000004780061
:105e60008144780000fd2f0000004400e90f50003d
:105e700002003e00000178000d00370008007800a5
:105e80008bf507000000e0000300320008007800f6
:105e900080f5070000047800080078008af5070004
:105ea0000000e0000700320090fa2f0000014400db
:105eb0000980fb00800f510002003d000280fb00c2
:105ec00001003700f00f20004f04be000000060064
:105ed000881f780070ad8100a717070000047800c4
:105ee00083f507000000e000faff3a00e10f4400ec
:105ef0000300320071ad810008007800d21707005e
:105f00004f04780000000600ec874700889fbe0021
:105f10008a9fbe008c9fbe008e1f780081bf9f00ad
:105f20000207780070ad89008046eb00040137005d
:105f30008884fb00090078006df507008000780078
:105f40000000e00002003200e1ff0700fc00370023
:105f500050c2b300804f5400f0003a000fbd9700cc
:105f600020c0b300c0ef9f00d1ef9f0081ef9f00e2
:105f70000300370040c0b300c0ef9f000fbd970083
:105f80000fb99700b240780082bf9f008184fb0068
:105f900090c6b30080cf50003500320017003e009d
:105fa0006640500080cf5000620032000c003e007e
:105fb0007740500080cf50002800320006003e009d
:105fc0000104e0009b003200a0c2b30080cf50006b
:105fd0006e003a001d00370080c5b3001600370080
:105fe00040c6b30080cf5000210032006440400022
:105ff00080cf500065003a001200370030c7b30070
:1060000080cf50001e00320007003e006740500065
:1060100080cf5000110032006340400080cf50001c
:106020005a003a001400370050c7b30080cf500028
:106030000f0032006340400080cf500053003a0010
:106040006500370020c0b300cbff3700dfe89700c2
:106050008140e800d1ef9f00c8ff37004fe997006b
:1060600080c0b300e24f5100c3ff3a00c1ff3700c8
:10607000acc0b300590037008cc0b30057003700e4
:1060800093ff0700dfe897000104e00002003a00f8
:106090004e017800d2b79f0070ad8100361707001f
:1060a00000047800e10f4000a20032008fec97005e
:1060b000120037000a85e8008abf9f0016003700eb
:1060c0008fb897001100fb00800f5400f9ff3200d9
:1060d0005fe997000204e00003003a005fb0970018
:1060e00008587800d0b79f008944e9000a003200c0
:1060f00070ad810020170700000478000800e80058
:10610000e10f50000400360008007800f8f40700a2
:106110000000e000eaff3200dfe897000104e00041
:1061200087003a008d46e8005fb19700014978008a
:10613000830037005fe897000004e00003003a00a6
:106140008d46e800ce007800d1b79f0070ad810089
:1061500009170700e10f4000760032005fe9970061
:106160000204e00003003a00dfb097008058780096
:10617000d1b79f000fe997000241e90082ef9f002d
:106180004240a9006e003400f0ff37000180fb00a0
:1061900008fd2f0008004000e90f50005f003e009e
:1061a0000a0078004517070080ef9f0088007800fc
:1061b000030037000fb897000000e80080bf9f0081
:1061c0000fb997001200fb0001004000e90f5000da
:1061d000f8ff360069ff37000cc1b3003cff070031
:1061e00070ad8100e4160700000578000040eb0068
:1061f000e0ef9f00d0022000800f550005003a001c
:1062000070ad8100dc1607000005780011c0b300f6
:10621000e1ef9f008c4078000a0078000eff070035
:10622000e14f40000a003a0071ad81000a00780099
:10623000051707000d04e0004b003a0070ad810027
:10624000300090000048a3004300320048003700af
:106250008fed97006044b8000c81fb000300200024
:106260000800be007ef407000004be008c407800e9
:106270000a007800f8fe07000080fb000100200003
:1062800008044000898448008b45e900070032007b
:1062900070ad8100b8160700000578008c407800ca
:1062a000edfe0700e14f4000ebff3a008c40780024
:1062b0000a007800e8fe0700e14f400003003a00c2
:1062c00071ad81000a007800df1607006fe99700c2
:1062d0000204e0000200320060041400e0841c00ac
:1062e0005fe897000004e00015003a008d46e800e2
:1062f000cfe89700e4cf500003003a004e0078004a
:106300000888be000e0037000e81e9000207780001
:1063100012007800080878000900370070ad81008d
:1063200095160700808f540005003200e10f4000f1
:106330000b003a000d04e0000d0032000a003700a7
:106340008fb897003144780081bf9f000804e000b7
:10635000f7fe3a00040037000000eb0005003700ac
:1063600071ad8100b81607000d80fb0001003700f9
:106370000080eb004f0778004f06be004f05be00bf
:106380004f04be00cf00b10000000600889fbe0091
:10639000000478008144780000fd2f0000004400d4
:1063a000e90f500002003e00000178000d003700a8
:1063b000080078003ef407000000e000030032000f
:1063c0000800780033f40700000478000800780023
:1063d0003df407000000e0000700320090fa2f00b3
:1063e000000144000980fb00800f510002003d00c5
:1063f0000280fb0001003700f00f20004f04be00b8
:1064000000000600881f7800102882005a16070036
:106410000004780036f407000000e000faff3a00bc
:10642000e10f4400030032001128820008007800c8
:10643000851607004f047800000006008f04b000a6
:10644000889fbe008a9fbe008c9fbe008e1f780072
:1064500081bf9f008206780010288a000040eb0070
:10646000e0ef9f00a50137008884fb000900780059
:106470001ff40700800078000000e00002003200f6
:10648000e0ff07009d01370050c2b300804f540069
:1064900084013a000fbd970022c0b300c2ef9f00f5
:1064a000d1ef9f00014778000300370041c0b300df
:1064b000c1ef9f000fbd97000fb99700b240780061
:1064c00082bf9f008184fb0070c6b30080cf500064
:1064d0001d003e0000c0e90080cf50003a003100ae
:1064e0007940500080cf5000a80032000e003e00de
:1064f0006740500080cf50003300320006003e005d
:106500000104e000280032007b40500080cf5000a2
:10651000ed003a002800370070c4b30080cf50006f
:10652000e9003a002800370030c6b30080cf5000a1
:10653000cf0032009b003e006b40500080cf5000e7
:10654000e1003a0003013700f0c6b30080cf5000ed
:106550009600320008003e006640500080cf500098
:10656000900032000e0039006340400080cf5000a0
:10657000d5003a008500370050c7b30080cf5000e7
:10658000880032006340400080cf5000f1003200ac
:106590006540500080cf5000cb003a0085003700a6
:1065a00020c0b3007d003700efe897000104e00051
:1065b000e5003a00010137005fe997000241e80079
:1065c000d2ef9f00bbff37008eff07000e04e000f4
:1065d00001003a00bec3b30010288200e615070090
:1065e00000017800d0022000800f51000500320029
:1065f000c0fa2f000f004000d0b79f000044eb000e
:1066000014003700c1fa2f008f80400082587800b4
:10661000d1b79f0010288200d7150700000178002d
:106620000e47e900f5ff37005fb097000258780089
:10663000d0b79f00e0022000800f510001003a0017
:106640000844e80010288200cb15070000017800fc
:106650000e47e9000e04e0000400320000fd2f00a8
:1066600000004100e90f5000efff36000804e00091
:1066700003003a00e0022000800f5100eaff3200e0
:106680000e04e0002d00320050062000800f510063
:106690000300320050042000800f510027003a0010
:1066a0005fb49700025c780010288200b2150700e2
:1066b000000178008e44e90002003a00d8b79f003c
:1066c0001e003700d0022000800f5100050032006c
:1066d0000080e900800f510002003200d8b79f000f
:1066e00012003700024c7800dfb097008180e8008c
:1066f000d1b79f00102882009f1507000001780085
:106700008ec4e900070037005fb097000258780098
:10671000d0b79f001028820097150700000178006d
:106720008944e9000904e0000400320000fd2f0064
:1067300000004100e90f5000f3ff3600dfb0970082
:106740008048eb00e10f4100030032001128820075
:1067500002007800bc1507005fb19700c0fa2f0057
:106760000f004000800f510004003a00efe897004e
:106770000104e000eb003a00900037005fe9970069
:106780000204e000dd003a00d00037004fe9970036
:10679000e24f510045ff320080c0b300c0ef9f00c0
:1067a00044ff3700acc0b3006b0037008cc0b300af
:1067b0006900370013ff0700dfe897000104e000dd
:1067c00002003a004d017800d2b79f0010288200e5
:1067d0006915070000047800e10f40005300320003
:1067e0008e447800120037000a85e8008abf9f00b7
:1067f000160037000fb997001200fb00800f5400fd
:10680000f9ff32005fe897000004e00003003a005f
:10681000dfb0970088587800d1b79f008944e9001d
:106820000a00320010288200531507000004780087
:106830000800e800e10f500004003600080078006e
:106840002bf307000000e000eaff32005fe9970049
:106850000204e000a9003a006fe897000040e80059
:10686000e0ef9f00dfb0970082487800a300370078
:106870005fe997000204e00005003a006fe8970026
:106880000040e800e0ef9f00cd007800d1b79f0006
:106890001028820038150700e10f40008700320001
:1068a000dfe897000104e00003003a005fb19700c1
:1068b00000597800d2b79f000e47e9004240a90076
:1068c0008e003400f2ff37000180fb0008fd2f002e
:1068d00008004000e90f50000e003e000a0078005a
:1068e000761507000047780088007800030037001d
:1068f0000fb897000000e80080bf9f000fb9970015
:106900001200fb0001004000e90f5000f8ff3600c4
:10691000e8fe37001028820017150700808f54000a
:1069200076003200e10f400005003a006fe8970062
:106930000004e0007e003200804078007a003700da
:1069400011288200401507006fe997000280fb00c4
:10695000780037000cc1b300aafe0700102882009f
:1069600005150700000578000040eb0080ef9f0050
:10697000d0022000800f550005003a001028820048
:10698000fd1407000005780011c0b30081ef9f00df
:106990008c4078000a0078007cfe0700e14f400040
:1069a0000b003a00112882000a0078002615070023
:1069b0006fe997000204e000e3ff3a00102882002c
:1069c000300090000048a300520032005800370009
:1069d0008e4578006044b8000c81fb000300200065
:1069e0000800be009ef207000004be008c40780044
:1069f0000a00780065fe07000080fb00010020000f
:106a000008044000898448008b45e90007003200f3
:106a100010288200d8140700000578008c40780008
:106a20005afe0700e14f4000ebff3a008c4078002f
:106a30000a00780055fe0700e14f400003003a00cd
:106a4000112882000a007800ff1407000fe8970061
:106a50000004e0000200320060041400e0841c0026
:106a6000dfe897000104e00024003a006fe9970096
:106a70000241e800e2ef9f004fe89700e44f50002a
:106a800003003a004d0078000888be001b00370064
:106a90000d81e9008206780012007800080878006d
:106aa0001600370010288200b3140700808f5400ae
:106ab00012003200e10f400018003a006fe9970021
:106ac0000204e0001a003200a0ff37006fe89700d0
:106ad0000040e800e0ef9f000d81e90082067800a9
:106ae000120478008000eb00c0fa2f000f00400075
:106af00016150700009cbe000294be000fb8970058
:106b00003044780080bf9f000804e00056fe3a0041
:106b1000040037000000eb00060037001128820057
:106b2000c9140700efe897000180fb00010037005f
:106b30000080eb004f0778004f06be004f05be00f7
:106b40004f04be008f04b10000000600889fbe0005
:106b50008a9fbe0080407800d0c6b30080cf50002e
:106b6000290036000185fb004206200011000900c3
:106b70000285d80000017800010478004311dd008f
:106b80000bbb23000b0141006022b800060020006f
:106b900007fe23000288900092889000b28990003e
:106ba0002289900095f50700a9002000809fbe0073
:106bb000110009000984d800000478004f00be00cd
:106bc0004344dd000b04440048229000d82290008a
:106bd00068239000f823900088f50700801f780054
:106be00001027800110009000985d8000102fd00aa
:106bf0004f0078004322dd000b0242005403be0028
:106c00004402be001f0037000180fb0009bb2300c7
:106c1000eacf500014003600a20020001100090045
:106c20000280d80000017800010478004311dd00e3
:106c3000090141006022b8000600200007fe230081
:106c400042209000d2209000f2219000622190001a
:106c50006af507004344dd00090444003802be0021
:106c60002803be00070037004300dd000900400094
:106c70006022b8000600200007fe23005001be007d
:106c80004000be005df507004f05be004f04be008a
:106c900000000600889fbe008a1f780080407800b0
:106ca0000004e00021003d008040ea00d0c6b300af
:106cb00080cf5000090034008104fb004206200010
:106cc000110009008204d80000017800010078005a
:106cd0004311dd000abb23001f0037000100fb0049
:106ce00003bb230039003700a20020001100090077
:106cf0000200d80000017800010078004311dd0097
:106d0000030141004300dd00030040003002be00eb
:106d10002003be0042209000d2209000f22190007b
:106d20006221900035f507002e003700d0c6b30071
:106d300080cf5000230034008104fb004206200075
:106d4000110009008204d8000001780001007800d9
:106d50004311dd000ac623000a014100a8002000fb
:106d6000110009000800d8004300dd000a004000bf
:106d700040229000d022900060239000f0239000e9
:106d80000288900092889000b28990002289900039
:106d90001af50700801f7800010278001100090031
:106da0008804d8000102fd004f0078000402fb00b7
:106db0004322dd000a0242005403be004402be002a
:106dc000d8ff37000100fb0003c62300eacf5000c4
:106dd000c5ff3c004300dd00030040005001be0041
:106de0004000be004f0578004f04be0000000600c2
:106df000ef04b000889fbe008a9fbe008c9fbe003b
:106e00008e1f78006022b8006033b800e4a79f00ae
:106e1000f5a79f0086af9f0097af9f00a0af9f0090
:106e2000b1af9f00c2af9f008002eb00a5a79f00fb
:106e3000d00737008001eb0050c2b30080cf500074
:106e4000090032000100fb00afa89700a31507005e
:106e5000e10f4000c70732002fa397000603e800a8
:106e6000a6a79f00c3073700bfab970097407800e5
:106e7000b0c2b30080cf50001900320007003c00c0
:106e80006b40500080cf5000100032006340400043
:106e900080cf500021003a0016003700d0c2b30066
:106ea00080cf5000040032006340400080cf50008b
:106eb0001a003a00140037000330a0003fac9700de
:106ec0000804e800b8af9f00e7ff37000300a00008
:106ed000bfac97008904e800b9af9f00e2ff37001c
:106ee0000310a0003fad97000a05e800baaf9f006d
:106ef000ddff370003b0a000bfad97008b05e800b1
:106f0000bbaf9f00d8ff37000320a0003fa8970029
:106f10000000e800b0af9f00d3ff37000318a300c4
:106f2000010032000300a1000338a3000100320079
:106f30000320a1000100fb0002fd2f000200400021
:106f4000e90f500010003e008000eb00e1979f0029
:106f5000020278006f9197006a10b900bfaa9700eb
:106f60001501fb000001410004014100e2979f0070
:106f70005500fb00b5af9f0004004000e90f500032
:106f80000d003e00f3ff37000003eb00e6979f0083
:106f9000a0c2b30080cf500007003a00cfab9700eb
:106fa00047047800c7af9f00e8979f00bfac9700e9
:106fb0008904e800b9af9f00e0c2b3003fad97007d
:106fc0009a4f100021003a00830678000de0a000df
:106fd0008a00e80064405000914f10000400320025
:106fe000b1af9f008005eb00bba79f0010003700ea
:106ff0004fa89700c0007800c0af9f00b1a79f00c6
:107000003fa997000281e800b2af9f00130037004c
:107010003fa297006a20b900000041000300400031
:10702000b0a79f00bfaa97008502e800b5af9f00f8
:107030003fab97001601fb0003fd2f00030041004a
:10704000e90f5000f2ff3600040037008306780095
:107050000dc0a0008003eb00b7a79f003fac9700d6
:10706000b8407800b8af9f00e1679f0070c6b300da
:1070700080cf50003c00320017003c0064405000bc
:1070800080cf50008f0032000e003c007c4050004a
:1070900080cf50003300320006003c000104e000c5
:1070a0003a07320000c0e90080cf5000aa003a0041
:1070b0002900370080c5b30080cf5000a6003a00f9
:1070c0002d00370050c6b30080cf5000230032009f
:1070d0001f003c00a700370000c7b30080cf50005e
:1070e000250032000a003c006440500080cf500070
:1070f000110032006340400080cf50001c0032007d
:107100006640500080cf500093003a00990037004d
:1071100050c7b30080cf500095003200634040005c
:1071200080cf5000150032006540500080cf5000e5
:1071300089003a0013003700000028000d48a30022
:1071400001003a000001200080867600c3ff37006e
:107150000da0a000870037000d50a0000d80a000fa
:10716000840037000d50a0000d90a0008100370072
:107170000d60a0007f0037000d50a0000d70a00032
:107180007c003700cfac970049007800c9af9f0062
:10719000e0a79f000000e00002003a00eb38240066
:1071a000eba79f000000eb00f0a79f000200370054
:1071b0008100e800f1a79f00ffa097006fa1970052
:1071c000028040001004e000f9ff3a00bfa19700e0
:1071d0000300e000040032007fa29700848f51007a
:1071e00001003100f3a79f007fa097000005eb008e
:1071f0006f939700800f5300010036000005530085
:107200004368de00e104600019003a0009047800d8
:1072100009003700afa8970000022000af14070054
:10722000e10f400003003200afa397008703e8009e
:10723000a7a79f000804e8008a0f5400f5ff3a0052
:107240000085eb000a003700efa097003100fb003b
:10725000e1a79f00afa89700a0140700e10f40002e
:10726000030032002fa497000804e800a8a79f009d
:10727000ffa597000b00e900f0a79f00e10f400079
:10728000f1ff3a000004eb000900e0000a003a00b8
:10729000b8063700afa89700000220008f1407003f
:1072a000e10f4000030032002fa197000201e80027
:1072b000a2a79f000804e8008a0f5400f5ff3a00d7
:1072c000ac063700cfa9970043007800c3af9f00fa
:1072d000cf80de0001017800820178000203be0049
:1072e0000002be00e0a79f00f1a79f0082af9f00b1
:1072f00093af9f004822de00482cdd00040274009a
:10730000e4679f000d48a3000c0032000404e00075
:107310000a003200e14f42000800320079fa2f00e3
:1073200009804700044878004fcd97001a40980024
:107330002b002000fba79f0003003700f0679f0091
:1073400010002000f0a79f0071fa2f0081804700f5
:10735000e1a79f009dff370062fa2f000f01410057
:10736000e2a79f0013002000f3a79f0097ff3700bc
:107370000d0cb30000702000008266008204320011
:107380000dc8a3000200320064002000b4a79f00d3
:107390000d48a300090032004fa897004005be0029
:1073a0004004be00c0af9f00e89f9f00f99f9f0070
:1073b0008aa79f009ba79f00080037004fa997004e
:1073c0004200be00c2af9f0031f10700e09f9f0066
:1073d000f19f9f0082a79f0093a79f006022b800a3
:1073e0006033b8006f989700ff9897000fa197003f
:1073f0009fa1970001f507000000e0000a003d0092
:107400006f9a9700ff9a97000fa397009fa397008a
:1074100007f0a200e49f9f00f59f9f0086a79f00b2
:1074200097a79f003d00b3000000eb00d0979f009e
:107430006022b8006033b8006f989700ff989700fb
:107440000fa197009fa197001cf907000000e00022
:10745000340032006f989700ff9897000fa19700b3
:107460009fa19700daf30700a5fa2f0005814700d6
:1074700048f907005f9097000000e9006300b90039
:10748000a2002000110009000200d8008000fd00c9
:10749000d1979f000100e00002003d000100e900db
:1074a000d0979f005f9497000840ea00f9fd07001d
:1074b0006f9a9700ff9a97000fa397009fa39700da
:1074c0004ef30700a09f9f00b19f9f00c29f9f00a7
:1074d000d39f9f006022b8000600200007ff230012
:1074e000c6f407000000e00002003d000800e900cb
:1074f0000b0037006022b80006002000470224007d
:107500002f989700bf9897004f999700df999700a1
:10751000b5f407000000e000020035000800e800b4
:10752000d0979f005f939700d6a79f000600e000ca
:1075300003003c0010c0b300e0679f00020037006a
:10754000afcb9700e7679f000d0678000c10b200e4
:1075500008003a000d98a300770232005fa497005c
:10756000e40f440003003500bfa49700890f5400c6
:10757000f20135003fa597000a00e0000400320048
:107580000d98a300020032000a05e900baa79f0087
:10759000bfa5970020c1b300f28f550001003e0047
:1075a0006fc09700e0679f006022b8006033b800aa
:1075b0006f989700ff9897000fa197009fa19700e1
:1075c000bef807000000e0006d0032006f65970014
:1075d000afc897000ac05000aefd07000002be0011
:1075e0000203be006f989700ff9897000fa19700c5
:1075f0009fa19700c8f00700e09f9f00f19f9f00a8
:1076000082a79f0093a79f00e5f807000004be0033
:10761000bef00700e00f5400e08f5c0004003d0066
:107620006022b80006002000071f2400b6f3070000
:107630000002be000203be006f989700ff989700fb
:107640000fa197009fa1970001f607006022b800e4
:107650000600200007fe230063f407000000e0009e
:107660000c0035006022b8000600200007fe230051
:107670006f989700ff9897000fa197009fa1970020
:10768000a1f30700e09f9f00f19f9f0082a79f004a
:1076900093a79f006f989700ff9897000fa19700fe
:1076a0009fa19700bef807000002be006033b8003b
:1076b0000a00fb004304dd00891724000900440090
:1076c000d000900060019000f00190004000900018
:1076d0000020e10001a8e10002b0e10003b8e100f0
:1076e000100039000400200005002a0096992900a6
:1076f00097fb23006f989700ff9897000fa19700c2
:107700009fa19700bdf20700e09f9f00f19f9f009f
:1077100082a79f0093a79f005fa197000200e80047
:1077200016003700090044005001be004000be00b2
:107730000020e10001a8e10002b0e10003b8e1008f
:107740000f0031006022b80006002000470224002c
:107750006f989700ff9897000fa197009fa197003f
:10776000a6f20700e09f9f00f19f9f0082a79f0065
:1077700093a79f00dfa197000300e900d0979f0027
:107780004968de006100600080cf9f000004e000d7
:107790004000320000802000008666003d003a0074
:1077a000bfa29700f48f520002003400460120006f
:1077b000b6a79f006f989700ff9897000fa19700ba
:1077c0009fa1970076f807000004be000c05780022
:1077d0008c0578000b003700bfa397008703e900f2
:1077e000b7a79f00a4002000050020006033b80068
:1077f0000800be000a01be009ff707000205be0098
:107800000004be00e00f5400e08f5c00e00f5d005c
:10781000e08f5d000b003200a40020000500200076
:107820006033b8000800be000a01be0099f70700e7
:10783000e00f5000e08f5800e00f5900e08f590032
:10784000e5ff3200ef6097000100fb003fa49700c6
:10785000800f54000f003d0008c050000dfd0700d0
:107860000002be000203be006f989700ff989700c9
:107870000fa197009fa1970027f00700e09f9f00ae
:10788000f19f9f0082a79f0093a79f00efc49700de
:10789000e9679f006f959700bfa597000b00550003
:1078a000650650000b00e00002003a000db8a3008e
:1078b000010032006606500063806600010032005d
:1078c0000c06e9000d28a30026003200e1806600c6
:1078d0000d18a3000c003200d00220000100e000cf
:1078e00001003a000080e900afa89700fb120700f2
:1078f000e10f4000180032002fa097000000e800c0
:10790000a0a79f00140037000100e0001200320021
:10791000afa8970000022000f0120700e10f40001e
:107920000d003200afa097008100e800a1a79f00e2
:1079300009003700afa8970000032000e7120700f6
:10794000e10f4000030032002fa197000201e80080
:10795000a2a79f000c06e9000c00e000f5ff3c0028
:107960002e0037000d38a3000a0032000b0037004c
:10797000afa8970000022000d8120700e10f4000d6
:1079800003003200afa197008301e800a3a79f0086
:107990000c06e9000c00e000f5ff3c00e180660009
:1079a0000d18a30013003200d00220000100e000f7
:1079b00001003a000080e900afa89700c712070055
:1079c000e10f4000150032002fa297000402e800ea
:1079d000a4a79f0011003700e8a79f00f9a79f0008
:1079e0008aaf9f009baf9f008042eb00e5679f003e
:1079f000800037000100e00008003200afa89700c7
:107a000000022000b5120700e10f40000300320021
:107a10002fa397000603e800a6a79f006f98970082
:107a2000ff9897000fa197009fa19700dcf7070030
:107a30000004be006055b800ef6397000700fb002c
:107a40004300dd008e1724000e0040003002be000f
:107a50002003be000800be000a01be0006f70700b2
:107a60000003b000afa897009c120700e10f400090
:107a7000030032002fa097000000e800a0a79f009d
:107a8000ef6097000100fb004300dd000e004000a6
:107a90003002be002003be000800be000a01be0086
:107aa000fcf607000205be000004be00e0a79f0030
:107ab000f1a79f0082af9f0093af9f00bfa29700e6
:107ac0000500e00002003a000db8a30049003200b2
:107ad000afa89700e002200080120700e10f4000ed
:107ae000030032002fa397000603e800a6a79f001b
:107af000ef6397000700fb00bfa0970000805000d5
:107b0000809f9f00240037000fc997000204e00007
:107b100005003200e00f5400e08f5c00e00f5d00d4
:107b2000e08f5d00acff32000000fb004300dd0091
:107b30008e1724000e0040003002be002003be005d
:107b40000800be000a01be00cbf607000003b0002b
:107b5000afa8970061120700e10f40000300320058
:107b6000afa197008301e800a3a79f006f62970071
:107b70000400fb004300dd000e0040003002be00a8
:107b80002003be000800be000a01be00c1f60700c7
:107b90000205be000004be00ef6297000540e90048
:107ba000e0679f00e14f4000d7ff3a00e8a79f0041
:107bb000f9a79f008aaf9f009baf9f000004eb00d6
:107bc00009003700afa89700000320004312070008
:107bd000e10f4000030032002fa397000603e800e6
:107be000a6a79f000804e8008f9b9700870f54000a
:107bf000f4ff3a000d58a30009003200afa8970027
:107c00005004200035120700e10f40000c00320044
:107c10002fa497000804e800a8a79f0008003700d9
:107c2000afa89700500620002c120700e10f40007b
:107c300003003200afa497008904e800a9a79f00c1
:107c40005f9097000000e0000b003d000000ea009c
:107c5000d0979f00afa89700d00220001f12070006
:107c6000e10f40000c0032002fa597000a05e80044
:107c7000aaa79f0008003700afa89700b002200015
:107c800016120700e10f400003003200afa5970075
:107c90008b05e800aba79f005f909700a80020002d
:107ca000110009000800d8000003b000afa8970039
:107cb0000a120700e10f4000030032002fa09700d6
:107cc0000000e800a0a79f00df90970011000900c6
:107cd0008800d8008000fd000003b000afa8970026
:107ce000fe110700e10f400003003200afa0970033
:107cf0008100e800a1a79f000d38a3001d043200f9
:107d00000c00e0001b0434000004eb00afa8970057
:107d100000022000f1110700e10f400003003200d3
:107d20002fa197000201e800a2a79f000804e80025
:107d30008c0f54000f043200f4ff3700dfa19700ce
:107d40000300e00004003d003fa297000300520042
:107d50000000e900b0a79f006f989700ff98970078
:107d60000fa197009fa19700d9f607000205be005a
:107d70000004be000c427800851724000b00370079
:107d80000400fb004300dd00050040005001be0080
:107d90004000be000040e10001c8e10002d0e10067
:107da00003d8e100030039000442e800f44f520018
:107db000f3ff3a00e4679f000400fb00bfa29700b6
:107dc00000875200f80f57000d003c000e4078006d
:107dd0005efb07000002be000203be006f98970022
:107de000ff9897000fa197009fa19700c6f1070089
:107df000e09f9f00f19f9f0082a79f0093a79f0095
:107e00000e407800a3fb0700d0af9f00e1af9f00ba
:107e1000f2af9f0083b79f00e00f5400e08f5c003b
:107e2000e00f5d00e08f5d00040035000800be003b
:107e30000a01be00e4f20700130037001000200022
:107e4000010020006011b800080060008980600017
:107e50000a0161008b8161008b03d1000a83d3008a
:107e60008982d3000882d3000000720081807200f2
:107e70000201730083817300d3f207000002be0089
:107e80000203be00a0f107000002be000203be0014
:107e90006f989700ff9897000fa197009fa19700f8
:107ea000ebf307000002be000203be005fa89700cc
:107eb000efa897007fa997008fb19700cff0070038
:107ec00083f607000205be000004be000006eb00ba
:107ed00008003700a4002000050020006033b8002f
:107ee0000800be000a01be00e3f507000205be005f
:107ef0000004be000c035700b6a79f008e0f56006b
:107f00001d0032000c06e800a4002000050020003f
:107f10006033b8000800be000a01be00ddf50700ae
:107f2000e00f5000e08f5800e00f5900e08f59003b
:107f3000e8ff320010003700bfa39700f88f53000e
:107f40000d003c000740780000fb07000002be0067
:107f50000203be006f989700ff9897000fa197004b
:107f60009fa1970068f10700e09f9f00f19f9f008d
:107f700082a79f0093a79f005fa49700e90f54007a
:107f800015003c006022b8006033b8006f9897007d
:107f9000ff9897000fa197009fa1970047f6070051
:107fa0000000e000360032006f989700ff989700bd
:107fb0000fa197009fa1970045f60700e00f500022
:107fc000e08f5800e00f5900e08f59002c003a0074
:107fd000e10f54002a0034000400200005002e00a8
:107fe000b6e02200170124002f989700bf98970051
:107ff0004f999700df99970000f207000000e0001a
:1080000003003d00dfa49700738054000200370096
:108010005fa5970072005500d0979f002f689700ca
:108020001cfb0700a09f9f00b19f9f00c29f9f0065
:10803000d39f9f000002be000203be006f9897000e
:10804000ff9897000fa197009fa1970032ee0700bd
:108050001ff60700e0a79f00f1a79f0082af9f00d7
:1080600093af9f006000b8006011b800d0b79f00c8
:10807000e1b79f00f2b79f0083bf9f003400370035
:108080006f989700ff9897000fa197009fa1970006
:108090000ff60700e0a79f00f1a79f0082af9f00a7
:1080a00093af9f00e00f5000e08f5800e00f5900a1
:1080b000e08f59000200350043f207001700370037
:1080c00010002000010020006011b8006fa297008e
:1080d000ffa297000fab97009fab970004006000d2
:1080e0008580600006016100878161008703d100ff
:1080f0000683d3008582d3000482d300000072007f
:108100008180720002017300838173002ef20700e8
:108110000002be000203be00fbf007000002be002a
:108120000203be006f989700ff9897000fa1970079
:108130009fa1970046f30700d0b79f00e1b79f00cb
:10814000f2b79f0083bf9f000000eb00d0979f0015
:1081500014c0b300851724000f0037000400fb0093
:108160004300dd00050340003600be002601be00ce
:108170006fa49700ffa497000fad97009fad9700e5
:108180000040e10001c8e10002d0e10003d8e100b5
:10819000030039000442e800f44f5200efff3a00b8
:1081a000e4679f000400fb00bfa497000080440028
:1081b000df909700010040006f9597000006550082
:1081c0004b68de0061006000004778000004e000ba
:1081d00002003a000900e000010032000c06e9004c
:1081e00063806600010032000c06e9000d28a30040
:1081f00026003200e18066000d18a3000c0032005a
:10820000d00220000100e00001003a000080e900f7
:10821000afa89700b1100700e10f4000180032002e
:10822000afa597008b05e800aba79f0014003700af
:108230000100e00012003200afa897000002200009
:10824000a6100700e10f40000d0032002fa097009c
:108250000000e800a0a79f0009003700afa8970022
:10826000000320009d100700e10f400003003200d2
:10827000afa097008100e800a1a79f000c06e900cd
:108280000c00e000f5ff3c003f0037000d38a30074
:108290000a0032000b003700afa897000002200050
:1082a0008e100700e10f4000030032002fa197005d
:1082b0000201e800a2a79f000c06e9000c00e00004
:1082c000f5ff3c00e18066000d18a3000c003200b1
:1082d000d00220000100e00001003a000080e90027
:1082e000afa897007d100700e10f40002600320084
:1082f000afa197008301e800a3a79f0022003700e9
:108300000100e00020003200afa89700000220002a
:1083100072100700e10f40001b0032002fa29700ef
:108320000402e800a4a79f00170037000000fb002c
:108330004300dd0081172400010040003002be0030
:108340002003be006fa09700ffa097000fa9970021
:108350009fa99700c8f40700a40020000500200092
:108360006033b800cbf407000003b000afa897005b
:108370005a100700e10f400003003200afa297003f
:108380008502e800a5a79f006f6397000640e900fb
:10839000e0679f00e14f4000e4ff3a000b00370028
:1083a000afa89700000320004c100700e10f400029
:1083b00003003200afa397008703e800a7a79f0040
:1083c0005f9097000000e900d0979f005f909700b2
:1083d0000000e000f2ff3c003fa49700f20f5400c1
:1083e0000300340020c1b300e0679f0002003700a3
:1083f000efc49700e9679f00ef6097000100fb0062
:108400003fa5970000005500f0979f000104e00091
:1084100002003a000e04e00008003200afa8970006
:10842000e00220002d100700e10f400003003200a1
:10843000afa597008b05e800aba79f006f60970082
:1084400014fa07000002be000203be005fb09700ee
:10845000efb097007fb197008fb9970067ef0700e3
:108460001bf507001e0037000000fb004300dd0085
:108470008e1724000e0040003002be002003be0014
:108480000800be000a01be007bf40700a400200023
:10849000050020006033b8007ef407000003b00040
:1084a000afa897000d100700e10f40000300320055
:1084b0002fa097000000e800a0a79f00ef609700a2
:1084c0000100fb004300dd000e0040003002be0052
:1084d0002003be000800be000a01be006df40700c4
:1084e0000205be000004be006f6197000240e90073
:1084f000e0679f00e14f4000dbff3a00e8a79f00e4
:10850000f9a79f008aaf9f009baf9f000004eb007c
:1085100009003700afa8970000032000ef0f070005
:10852000e10f400003003200afa197008301e80093
:10853000a3a79f000804e8007f929700840f5400cf
:10854000f4ff3a000d38a3000a0232000c00e000ec
:10855000080234000004eb00afa8970000022000de
:10856000de0f0700e10f400003003200afa29700ca
:108570008502e800a5a79f000804e8008c0f5400be
:10858000fc013200f4ff37000d007800000cb2004f
:1085900032003a000d00e00009003d004fa89700ae
:1085a0004005be004004be00c0af9f00e8a79f008a
:1085b000f9a79f008aaf9f009baf9f00160037006e
:1085c0000d48a300090032004fa997004200be00e9
:1085d000c2af9f004f89de00cf91de000002be00d7
:1085e000020378008203780007003700cfa99700c4
:1085f00043007800c3af9f0000027800cfa2de00e6
:108600000503780086037800e4a79f00f5a79f0084
:1086100086af9f0097af9f006fa49700ffa49700bd
:108620000fad97009fad9700e00f5400e08f5c0006
:10863000e00f5d00e08f5d0026003d003d00b300cf
:108640006000b8006011b800080450008984580028
:108650000a0559008b8559001a0037000d00e0000b
:1086600005003d004faa97004401be004400be0033
:10867000c4af9f00070037000d48a3000a00320076
:10868000cfaa97004500be00c5af9f000401780047
:1086900084017800e0a79f00f1a79f0082af9f00b0
:1086a00093af9f000b0037004fab97004600780058
:1086b000c6af9f0000047800090020000a002000d7
:1086c0000b002000e8a79f00f9a79f008aaf9f003a
:1086d0009baf9f00bfa497000900e0000b003a0089
:1086e0006fa09700ffa097000fa997009fa9970080
:1086f000e00f5000e08f5800e00f5900e08f590064
:1087000002003a0011002000b1a79f000d0678007a
:108710000c0cb20000042000800f5600370032001d
:1087200003003c000c00e000070032004b00370063
:1087300000082000800f560018003200000c2000b6
:10874000800f560045003a0014c0b300851724007e
:108750000f0037000400fb004300dd00050040006f
:108760005001be004000be006fa49700ffa4970018
:108770000fad97009fad97000040e10001c8e100f8
:1087800002d0e10003d8e100330039000442e800e0
:10879000f44f5200efff3a002f0037000001200095
:1087a000010020006011b80014c0b3006fa497004e
:1087b000ffa497000fad97009fad97000040e10028
:1087c00001c8e10002d0e10003d8e1002200390035
:1087d000490020000000d0008180d2000281d20038
:1087e0008381d2008904e900faff3a000442e800dc
:1087f000f04f5200edff3a001700370080002000d4
:10880000010020006011b80014c0b3006fa49700ed
:10881000ffa497000fad97009fad97000040e100c7
:1088200001c8e10002d0e10003d8e1000a003900ec
:10883000390020000000d0008180d2000281d200e7
:108840008381d2008904e900faff3a000442e8007b
:10885000f54f5200edff3a00e4679f006f65970007
:108860000a00fb00bfa597008b0f500002003d00df
:10887000eb679f0004003700bfa09700808f500077
:1088800001003d00b0a79f006f9197000200e0003b
:108890000400320063806600020032000201e90039
:1088a000e2979f000de8a3000b003200ef919700c4
:1088b0003fa29700848f510003003c008002eb0030
:1088c000e5979f00040037006f939700bfa39700c0
:1088d00007035300e6979f00408c2000008066004d
:1088e00001842000810f500006003a006f94970029
:1088f0000800e000110032000804e900e8979f003a
:108900000e003700008c20000080660001882000e7
:10891000810f500009003a00ef949700e28f540055
:1089200003003c000005eb00ea979f0003003700be
:10893000ef9597008b85e900eb979f00ef6097001c
:108940000100fb000007eb006f919700800f5100c2
:1089500001003400000751000d28a3004b00320035
:10896000e18066000d18a3000c003200d002200048
:108970000100e00001003a000080e900afa8970084
:10898000d60e0700e10f400027003200afa197008c
:108990008301e800a3a79f00230037000100e00047
:1089a00009003200afa8970000022000cb0e07009c
:1089b000e10f40001c0032002fa297000402e800e3
:1089c000a4a79f0018003700008c200000806600dc
:1089d00001882000810f500013003a00afa89700d3
:1089e00000032000bd0e0700e10f4000030032002d
:1089f000afa297008502e800a5a79f008005200090
:108a00000d58a30001003a0080072000afa897008e
:108a1000b20e0700e10f4000030032002fa39700c1
:108a20000603e800a6a79f000e00e0000d0032003c
:108a30000004eb00afa8970000032000a70e07007a
:108a4000e10f400003003200afa397008703e80066
:108a5000a7a79f000804e8008e0f5400f5ff3a0016
:108a60000007eb003fa49700c340dd00001724007f
:108a7000808540004240dd00640550006340b9003d
:108a8000909f9f0063045000a20037000e00e0009a
:108a90000f003200688066000d003a000004780084
:108aa000afa89700000220008c0e0700e10f4000e5
:108ab00003003200afa497008904e800a9a79f0033
:108ac0000804e8008e0f5400f5ff3a000007eb00a1
